S013000049522D417474696E7931332E737265636C
S113000009C020C00DC00CC00BC00AC009C009C083
S113001007C006C011241FBECFE9CDBF73D094C062
S1130020EFCF0F920FB60F92009049000394009205
S11300304900009066000394009266000F900FBE82
S11300400F90189578940F920FB60F920F93EF9329
S1130050FF93E0E6F0E00081006800830170F9F0AE
S11300600681063220F00C3210F4089406C0068192
S11300700031A8F0083198F4889405810795058328
S113008004810795048303810795038302810795FF
S11300900283018103950183013208F40CC00681B7
S11300A00C3D48F00A3F38F4008101600D7F0B7F5E
S11300B00083002701830681043B28F0073D18F4E0
S11300C00081086000830081017099F00181003291
S11300D081F400270183008104600083028000E032
S11300E0001639F403800FEF001619F40081026042
S11300F0008300270683FF91EF910F910F900FBEAD
S11301000F9018958FE781BF80E886BD16BC80E10B
S113011087BB82E088BB95E093BF12BE91E099BD96
S113012098E099BF90E49BBF85BF789410926000DB
S11301308091600081FF06C080916400803411F4D6
S10F0140C49AF6CFC498F4CFF894FFCF13
S10B014C0000000000000000A7
S9030000FC
